:100000000C94E7000C9404010C9404010C9404017A
:100010000C9404010C9444010C9404010C9404010C
:100020000C9404010C9404010C9404010C9404013C
:100030000C9404010C943C050C9404010C940401F0
:100040000C9478090C9404010C9404010C940401A0
:100050000C9476070C9434070C9404010C9404015E
:100060000C9404010C9404010C9404010C940401FC
:100070000C9404010C9404010C94040150726573F7
:1000800073206120627574746F6E20746F207374B6
:1000900061727420616761696E0047414D45204F70
:1000A0005645520043535345323031302F373230AA
:1000B0003120536E616B652050726F6A65637420E6
:1000C00062792059616E696B204C617562650053DD
:1000D0006E616B650040013D013901350131012D33
:1000E000012901250121011D01AF01AB01A701A3D8
:1000F000019F019B019701930190018C018801846C
:10010000017F017B01770173016E016A0166016164
:10011000015D01580153014E01490144016492926D
:100120007D6C92926D809EA0C17C92924DE4A2A2C1
:100130009D182848FF4492926D468A926342FE03BE
:100140007C92A27D868A92A2C3E0100E10E1C6289E
:100150001028C7FC021C02FDF8040204F9FC02028C
:10016000FD8080FE80816492924DFE9098677C8233
:100170008A7C03FE9090617C82827DFE2010FFFECF
:10018000403040FFFE020203FE1028C7040202FDB9
:1001900082FE83FE1010FF7C82925DFE909081FEB5
:1001A000929283FE82827D7C828245FE92926D7E57
:1001B00090907F1B5B3F32356C001B5B25646D00AC
:1001C0001B5B324A001B5B25643B256448001124FD
:1001D0001FBECFEFD8E0DEBFCDBF11E0A0E0B1E0A1
:1001E000ECE1FCE102C005900D92AA33B107D9F70A
:1001F00022E0AAE3B1E001C01D92A33AB207E1F701
:100200000E94BD040C940C0E0C940000E8E6F0E093
:10021000808182608083D99AECE6F0E080818F60F3
:10022000808310923A01089510923A0108958091C6
:100230003A0118163CF580913B016FB7F894909104
:100240003A019230B4F021E030E091E0F901E55C50
:10025000FE4F4081F901E65CFE4F40839F5F292FEE
:1002600030E040913A01042E000C550B241735075D
:100270006CF390913A01915090933A0166231CF4EB
:10028000789408958FEF08951F920F920FB60F92F2
:1002900011242F933F934F935F936F937F938F938B
:1002A0009F93EF93FF9343B14F7080913A01883051
:1002B00064F580E090E0642F70E09B01082E02C09E
:1002C000359527950A94E2F720FF1BC02091430142
:1002D00030E0082E02C0359527950A94E2F720FDFC
:1002E00010C0E0913A0121E02E0F20933A010E2E2A
:1002F000000CFF0BE55CFE4F808320913A01283013
:1003000024F4019684309105C1F640934301FF9196
:10031000EF919F918F917F916F915F914F913F915D
:100320002F910F900FBE0F901F9018951092800183
:10033000089530918001131684F4909181018917FA
:1003400071F0E2E8F1E090E003C02191281749F054
:100350009F5F3913FACF8FEF08958FEF089580E0F4
:100360000895892F08950E94990191E08F3F09F423
:1003700090E0892F0895FF920F931F93CF93DF93FF
:10038000809180018830D4F500E010E0D0E0C0E03A
:1003900002C00F5F1F4F2C2FCC0F330B2D5F3F4F31
:1003A000200F311F2F703078332334F4215031095E
:1003B000206F3F6F2F5F3F4F822FC22F6D2FDD0FBA
:1003C000770B6B5F7F4F67707078772334F46150E1
:1003D0007109686F7F6F6F5F7F4FD62F0E94020396
:1003E000F82E0336110561F00E9437088111D1CF34
:1003F0008F2D0E94B3018111CCCF04C088E00FC0C3
:1004000088E00DC080918001E82F082E000CFF0BC2
:10041000EF57FE4FF0828F5F809380018F2DDF9129
:10042000CF911F910F91FF9008958823B4F02091F0
:100430008001821794F48F5F821764F4E82F082EEE
:10044000000CFF0BEF57FE4F9081319790838F5F29
:100450008217A4F321502093800108951F93CF9316
:10046000DF93C82F162F0E94FA02D82F8C2F0E94DC
:10047000F702412F6D2F0E94B002DF91CF911F91A3
:100480000895CF93DF930E94F3020E94C9070E9450
:10049000EA076FE00E942E020E94F30760EF0E94BD
:1004A0002E020E949601C3E00E94BB01D82F0E9439
:1004B000FC02882321F063E38D2F0E942E02C1509D
:1004C00099F7DF91CF9108950F931F93CF93DF9307
:1004D0000E94EA07D82F0E945A08C82F882384F167
:1004E0000E94EA07182F8EEF8C0F8230B8F4812F0C
:1004F0000E9499010E9415028DE090E00E940F0574
:1005000081E00E94A4050E94BB01082F0E94FC020A
:10051000882321F063E3802F0E942E02CD7FC1301B
:1005200029F40E94FC0760E00E942E0260EF8D2FEC
:100530000E942E026FE0812F0E942E0281E001C0F6
:1005400080E0DF91CF911F910F9108950E94BB0130
:100550006CE30E942E02089580E80E94EC08089542
:100560001F93CF93DF938031B0F46830A0F4142F41
:10057000C62FD82F81E00E9414096C2F677080E18C
:10058000689F900111248D2F8F70822B0E94140977
:10059000812F0E941409DF91CF911F9108950F932D
:1005A0001F93CF93DF93803190F48B01C82F83E0AA
:1005B0000E9414098C2F8F700E941409E801085FB3
:1005C0001F4F89910E941409C017D107D1F7DF91FD
:1005D000CF911F910F91089584E00E94140982E049
:1005E0000E94140908958FE00E94140908958295CD
:1005F0008F7008958F70089583FB882780F991E0AC
:100600008927089520E1829FC00111246770862BFD
:1006100008950E94AC020E94060140E060E07BE485
:1006200080E090E00E94E1060E9452090E942905A4
:1006300078940895FF920F931F93CF93DF9380E0F8
:100640000E943C090E9433090E94490963E083E04B
:100650000E941A098FEC90E09F938F930E94FC0AEE
:1006600065E083E00E941A0980E20E943C0984EA66
:1006700090E09F938F930E94FC0A85E20E943C09C0
:100680000E94F3020F900F900F900F90CFE00F2E6B
:10069000FFE0FF2EF02D0FEF10EFD5E16C2F8DE175
:1006A00091E00E94AA050DC02FE78CE293E0215053
:1006B00080409040E1F700C000000E9417018F3F8A
:1006C000A9F50E94B9058111EFCF0E94510ADC0102
:1006D000CB0183709927AA27B078BB2354F40197E4
:1006E000A109B1098C6F9F6FAF6FBF6F0196A11DFC
:1006F000B11D81309105A105B10591F02CF4892B34
:100700008A2B8B2B59F0CACF82309105A105B105F8
:1007100049F00397A105B10539F0C0CFCD2FBECF69
:10072000CF2DBCCFC02FBACFC12FB8CFDF91CF9183
:100730001F910F91FF9008950E9433090E9441027A
:100740000E94C8040E94E6040E94A1050E94F904C8
:100750000E9414010E942F0708953F924F925F92CA
:100760006F927F928F929F92AF92BF92CF92DF92C1
:10077000EF92FF920F931F93CF93DF930E946A092A
:100780004B015C01312C0F2EF8E94F2EFAE35F2E5E
:10079000612C712CF02D1FEFCDE9D2E00E941701E2
:1007A000082F0E946A09A30192010E94B109672BD8
:1007B000682B692B11F40E94A6020F3F09F09FC01D
:1007C0000E942807882309F473C0888199810E94B8
:1007D000A80A311005C08B3109F48AC0912F0DC0D1
:1007E00091E0391205C08B3509F485C0912F05C001
:1007F00092E039121FC0982F812F933409F083C0E3
:10080000312C81E00E94130853C0312C80E00E94FB
:1008100013084EC0033011F0943421F483E00E9499
:10082000130846C0013011F0923429F482E00E948E
:1008300013083EC0312C8F7D8035D1F50E946A09A6
:100840004B015C010E9406056B017C010E946A0954
:10085000C80CD91CEA1CFB1CC61AD70AE80AF90AFC
:10086000012F16C0C114D104E104F10409F181E0A3
:10087000C81AD108E108F1088FEC97E00197F1F769
:1008800000C00000C114D104E104F10481F710C0DC
:100890000E942807882329F0888199810E94A80A4C
:1008A000082F0E941401802F8F7D803589F7DACFC1
:1008B0000E946A096B017C010E940605DC01CB01E4
:1008C000880D991DAA1DBB1DC816D906EA06FB0690
:1008D00008F464CF0E94E6040E946402811103C000
:1008E0000E94E6041BC00E946A094B015C0156CFBE
:1008F00033243394DDCF6894332431F8D9CF0023E7
:1009000009F47FCF05C0913409F47FCF312C82CF19
:10091000023009F47BCF912F812F7CCFDF91CF91D3
:100920001F910F91FF90EF90DF90CF90BF90AF900D
:100930009F908F907F906F905F904F903F90089521
:100940006EE08AE00E941A098AE990E09F938F93F3
:100950000E94FC0A6FE08AE00E941A098CE790E08E
:100960009F938F930E94FC0A0F900F900F900F900F
:100970000E9417018F3FE1F308950E9409030E942E
:100980001A030E949C030E94AD030E94A004F9CFA9
:1009900010924A0110924B0110924C0110924D019D
:1009A000089540914A0150914B0160914C01709122
:1009B0004D01480F591F611D711D40934A0150930D
:1009C0004B0160934C0170934D0108950E943309CF
:1009D000EAE4F1E081818F9380818F9386E291E058
:1009E0009F938F930E94E60A0F900F900F900F90A5
:1009F000089588E592E0A0E0B0E0809346019093EE
:100A00004701A0934801B0934901089560914601C0
:100A1000709147018091480190914901089540915A
:100A20004601509147016091480170914901493C4C
:100A300051056105710560F0481B590B6109710989
:100A400040934601509347016093480170934901D8
:100A500008958FEF87B9529A8FE097E290938900BB
:100A600080938800109280008AE08093810082E069
:100A700080936F0086BB08951F920F920FB60F925E
:100A800011242F934F935F936F937F938F939F9333
:100A9000AF93BF93EF93FF939091450181E0892736
:100AA0008093450180914501811115C0E091440179
:100AB0008DECE89F812D1124869586958695880F6B
:100AC000982F990F990F890FE81BF0E0EC5FFE4F0C
:100AD000808188B921C0209144012A3010F418B8CF
:100AE0001BC0422F50E09DEC299F912D112496951B
:100AF00096959695990F892F880F880F980F291B27
:100B0000CA01821B91096AE070E00E949D09FB0105
:100B1000EC5FFE4F808188B980914501880F880F76
:100B20008BB9FF91EF91BF91AF919F918F917F9181
:100B30006F915F914F912F910F900FBE0F901F906B
:100B4000189510924401089590914401890F809363
:100B50004401089560930E019093520180935101D6
:100B600010925401109253011092500110924F01B3
:100B700008950F931F93CF93DF93CDB7DEB72897D8
:100B80000FB6F894DEBF0FBECDBFE0915301F091D8
:100B90005401309781F0149110FF06C01092540157
:100BA0001092530100E06BC03196F0935401E09332
:100BB000530100E064C0E0914F01F0915001309783
:100BC00009F449C0CF0101969093500180934F01E1
:100BD000E081E1110AC01092500110924F0180E1B2
:100BE00080934E0100E010E04AC08FE98E0F8A31F9
:100BF00070F4F0E0EE0FFF1FE95DFF4F85919491D7
:100C0000909354018093530100E010E038C08FEBC3
:100C10008E0F8A3170F4F0E0EE0FFF1FE959FF4F9D
:100C200085919491909354018093530100E010E0DA
:100C300026C080ED8E0F8A3000F5F0E0EE0FFF1F2A
:100C4000EB58FF4F859194919093540180935301F9
:100C500000E010E014C0809151019091520101E038
:100C6000009709F000E09093500180934F0110929B
:100C700052011092510110E002C000E010E00E9409
:100C8000EC0220910E01FE013896CE01019611234F
:100C900014F4208301C01082110F3197E817F9076F
:100CA000B1F71982BE016F5F7F4F8FE00E94CF02C4
:100CB00080914E01882389F0815080934E0100235A
:100CC00011F0882311F090E003C091E001C091E0A1
:100CD00081E0992329F080E003C00023A1F3F7CF3E
:100CE00028960FB6F894DEBF0FBECDBFDF91CF912F
:100CF0001F910F910895CF93C82F8A3019F48DE07A
:100D00000E947B069FB7907802C0992329F18091B9
:100D10008A018F3FD1F3F894E091890181E08E0F31
:100D200080938901F0E0E557FE4FC08380918A01EE
:100D30008F5F80938A01809189018F3F11F4109217
:100D40008901E1ECF0E0808180628083992339F0B1
:100D5000789480E090E005C081E090E002C080E0FF
:100D600090E0CF91089580919C028823E1F32FB702
:100D70002078F89480918A0230919C0290E0831B45
:100D800091095AF4E0918A0280919C02F0E0E81BFC
:100D9000F109E556FD4F80810AC0E0918A028091F9
:100DA0009C02F0E0E81BF109E557FD4F808190912E
:100DB0009C02915090939C02222309F0789490E039
:100DC00008951092890110928A0110928A0210925D
:100DD0009C0210929B0240935501DC01CB01880FCD
:100DE000991FAA1FBB1F880F991FAA1FBB1F9C0119
:100DF000AD01220F331F441F551F60E072E18AE7E7
:100E000090E00E94D309BA01A9014F5F5F4F6F4F75
:100E10007F4FDB01CA011AF40196A11DB11DB595E2
:100E2000A7959795879501979093C5008093C400E7
:100E3000E1ECF0E088E18083808180688083EDE9E7
:100E4000F2E08FE091E09383828391838083089521
:100E500090919C0281E0911101C080E00895109270
:100E60008A0210929C0208951F920F920FB60F9261
:100E700011242F938F939F93EF93FF9380918A0177
:100E8000882329F18091890120918A0190E0821BB9
:100E900091095AF4E091890180918A01F0E0E81B00
:100EA000F109E657FD4F90810AC0E09189018091D8
:100EB0008A01F0E0E81BF109E557FE4F908180912F
:100EC0008A01815080938A019093C60005C0E1ECAD
:100ED000F0E080818F7D8083FF91EF919F918F91D2
:100EE0002F910F900FBE0F901F9018951F920F9289
:100EF0000FB60F9211242F933F934F935F936F93ED
:100F00007F938F939F93AF93BF93CF93EF93FF9371
:100F1000C091C60080915501882349F080918A01D3
:100F20008F3F29F060E070E08C2F0E947B0680915B
:100F30009C02803120F081E080939B0218C0CD306C
:100F400009F4CAE0E0918A0281E08E0F80938A0260
:100F5000F0E0E557FD4FC08380919C028F5F809346
:100F60009C0280918A02803111F410928A02FF91D2
:100F7000EF91CF91BF91AF919F918F917F916F91A1
:100F80005F914F913F912F910F900FBE0F901F9047
:100F900018950F931F93CF9382E080935A0110927C
:100FA0005801C1E0C093590161E081E00E94020351
:100FB0000BE511E0F801808361E082E00E9402030A
:100FC000F8018183C0935701C0935601CF911F91BF
:100FD0000F910895E09159010E2E000CFF0BE55A78
:100FE000FE4F80810895E09158010E2E000CFF0BFA
:100FF000E55AFE4F8081089590915801E92F092EFE
:10100000000CFF0BE55AFE4F80819F5F913219F073
:101010009093580102C01092580190915A0191503A
:1010200090935A01089590915701913031F4833093
:10103000D9F481E0809356010895933031F48130E2
:1010400099F483E0809356010895911105C0823090
:1010500059F4109256010895923031F4811104C070
:1010600082E08093560108958093560108959091EF
:1010700058013091590140E00DC0E92F092E000CB4
:10108000FF0BE55AFE4F2081281789F09F5F9132B0
:101090000CF0942F9313F1CFE32F330FFF0BE55A8E
:1010A000FE4F91E02081281719F090E001C091E0F7
:1010B000892F0895CF93DF9380915A01813208F0F0
:1010C00085C0E09159010E2E000CFF0BE55AFE4F32
:1010D00080810E94F702D82FC82FE09159010E2E6F
:1010E000000CFF0BE55AFE4F80810E94FA02682F28
:1010F00090915601913081F028F0923041F0933078
:1011000081F01BC0873091F061E0680F16C0882322
:1011100079F06FEF680F11C0DF3061F0C1E0CD0FE3
:101120000CC0DD2349F0CFEFCD0F07C060E005C054
:1011300067E003C0C0E001C0CFE08C2F0E94020333
:10114000C82F80915601809357018C2F0E94370839
:10115000813051F4E09158010E2E000CFF0BE55A3E
:10116000FE4F8081C81334C0809159018F5F813256
:1011700019F08093590102C010925901E091590170
:101180000E2E000CFF0BE55AFE4FC08380915A01D2
:101190008F5F80935A018C2F0E94B301882381F0C6
:1011A00080915A01813230F483E090E00E94D104B2
:1011B00082E00FC083E090E00E94D10483E009C088
:1011C00081E090E00E94D10481E003C08DEF01C076
:1011D0008EEFDF91CF91089594B1906B94B92C9AD2
:1011E00090E59CBD883021F0803211F0823019F4F6
:1011F00091E09DBD01C01DBC803269F028F48830AB
:1012000071F0803161F00EC0803429F0803851F4E3
:101210008CB581608CBD8CB582608CBD03C08CB5F3
:1012200081608CBD2C9808958EBD0DB407FEFDCF56
:101230008EB50895282F082E000C330B3F938F9303
:10124000862F062E000C990B9F936F9385EC91E0EF
:101250009F938F930E94FC0A0F900F900F900F9016
:101260000F900F90089580EC91E09F938F930E94D0
:10127000FC0A0F900F9008951F928F938AEB91E0D4
:101280009F938F930E94FC0A0F900F900F900F90E6
:10129000089583EB91E09F938F930E94FC0A0F9037
:1012A0000F90089510927C0110927D0110927E01A2
:1012B00010927F0116BC8CE787BD82E084BD83E07D
:1012C00085BDEEE6F0E080818260808385B3827028
:1012D00085BB08952FB7F89460917C0170917D01D2
:1012E00080917E0190917F0122230CF478940895DF
:1012F0001F920F920FB60F9211248F939F93AF936B
:10130000BF9380917C0190917D01A0917E01B0916D
:101310007F010196A11DB11D80937C0190937D01F9
:10132000A0937E01B0937F01BF91AF919F918F9168
:101330000F900FBE0F901F90189597FB072E16F475
:10134000009407D077FD09D00E94F20907FC05D070
:101350003EF4909581959F4F0895709561957F4FCC
:101360000895A1E21A2EAA1BBB1BFD010DC0AA1FE6
:10137000BB1FEE1FFF1FA217B307E407F50720F0FE
:10138000A21BB30BE40BF50B661F771F881F991F79
:101390001A9469F760957095809590959B01AC01C2
:1013A000BD01CF010895052E97FB1EF400940E9405
:1013B000EA0957FD07D00E94B10907FC03D04EF49B
:1013C0000C94EA0950954095309521953F4F4F4F29
:1013D0005F4F089590958095709561957F4F8F4FE1
:1013E0009F4F0895AA1BBB1B51E107C0AA1FBB1F3B
:1013F000A617B70710F0A61BB70B881F991F5A95A1
:10140000A9F780959095BC01CD0108958F929F9288
:10141000AF92BF92CF92DF92EF92FF92CF93DF9382
:10142000EC01688179818A819B8161157105810553
:10143000910521F464E279ED8BE597E02DE133EF3E
:1014400041E050E00E94D30949015A019B01AC01DF
:10145000A7EAB1E40E94B30D6B017C01ACEEB4EFDE
:10146000A50194010E94C10DDC01CB018C0D9D1DD5
:10147000AE1DBF1DB7FF03C00197A109B048888307
:101480009983AA83BB83BC01CD019F77DF91CF9164
:10149000FF90EF90DF90CF90BF90AF909F908F9094
:1014A00008958F929F92AF92BF92CF92DF92EF9268
:1014B000FF92609100017091010180910201909171
:1014C0000301611571058105910521F464E279ED4F
:1014D0008BE597E02DE133EF41E050E00E94D30926
:1014E00049015A019B01AC01A7EAB1E40E94B30D86
:1014F0006B017C01ACEEB4EFA50194010E94C10D1B
:10150000DC01CB018C0D9D1DAE1DBF1DB7FF03C0BF
:101510000197A109B0488093000190930101A09325
:101520000201B0930301BC01CD019F77FF90EF90C2
:10153000DF90CF90BF90AF909F908F900895609371
:1015400000017093010180930201909303010895BB
:10155000CF93DF93EC012B8120FF33C026FF0AC01D
:101560002F7B2B838E819F8101969F838E838A811F
:1015700090E029C022FF0FC0E881F9818081082E08
:10158000000C990B009719F420622B831AC0319636
:10159000F983E8830EC0EA85FB85099597FF09C0AA
:1015A0002B81019611F080E201C080E1822B8B83B8
:1015B00008C02E813F812F5F3F4F3F832E839927A5
:1015C00002C08FEF9FEFDF91CF910895A0E0B0E0D0
:1015D000ECEEFAE00C94D60DAE014B5F5F4FFA01D2
:1015E00061917191AF0180919F029091A0020E9440
:1015F000220BE2E00C94F20DA0E0B0E0E2E0FBE0B0
:101600000C94D40DAE01495F5F4FDA016D917D916D
:10161000AD010DE912E0F80182819381DC0113969E
:101620002C911397286013962C930E94220BD801BB
:101630001296ED91FC9113972381277F2383E4E099
:101640000C94F00DABE0B0E0E8E2FBE00C94C60DCA
:101650006C017B018A01FC0117821682838181FF64
:10166000CCC1CE0101963C01F6019381F70193FDB7
:10167000859193FF81917F01882309F4BAC1853256
:1016800039F493FD859193FF81917F01853229F48F
:10169000B60190E00E94190DE7CF912C212C312C3E
:1016A000FFE1F315D8F08B3279F038F4803279F01D
:1016B0008332A1F4232D20611DC08D3261F080336F
:1016C00069F4232D216016C0832D8260382EE32D0E
:1016D000E4603E2E2AC0F32DF8601DC037FC2DC0FB
:1016E00020ED280F2A3040F08E32B9F436FC81C14B
:1016F000232D2064322E19C036FE06C08AE0989E43
:10170000200D1124922E11C0EAE02E9E200D1124EE
:10171000222EF32DF0623F2E08C08C3621F4832D4B
:101720008068382E02C0883641F4F70193FD859118
:1017300093FF81917F018111B3CF982F9F7D9554A5
:10174000933028F40C5F1F4F9FE399830DC08336BD
:1017500031F0833771F0833509F059C021C0F801A9
:10176000808189830E5F1F4F88248394912C5301BD
:1017700013C02801F2E04F0E511CF801A080B18087
:1017800036FE03C0692D70E002C06FEF7FEFC50128
:101790000E940E0D4C018201F32DFF773F2E16C0E3
:1017A000280122E0420E511CF801A080B18036FED3
:1017B00003C0692D70E002C06FEF7FEFC5010E948A
:1017C000030D4C01F32DF0683F2E820133FC1BC04A
:1017D000822D90E088169906B0F4B60180E290E080
:1017E0000E94190D2A94F4CFF50137FC859137FE3C
:1017F00081915F01B60190E00E94190D21102A9499
:1018000021E0821A91088114910471F7E8C08436AE
:1018100011F0893641F5F80137FE07C0608171810A
:10182000828193810C5F1F4F08C060817181072EF8
:10183000000C880B990B0E5F1F4FF32DFF763F2E88
:1018400097FF09C090958095709561957F4F8F4F58
:101850009F4FF0683F2E2AE030E0A3010E94550D13
:10186000882E861845C0853731F4232D2F7EB22E61
:101870002AE030E025C0932D997FB92E8F36C1F034
:1018800018F4883579F0B5C0803719F0883721F021
:10189000B0C0E92FE061BE2EB4FE0DC0FB2DF46098
:1018A000BF2E09C034FE0AC0292F2660B22E06C002
:1018B00028E030E005C020E130E002C020E132E065
:1018C000F801B7FE07C060817181828193810C5F4E
:1018D0001F4F06C06081718180E090E00E5F1F4F56
:1018E000A3010E94550D882E8618FB2DFF773F2EF1
:1018F00036FE0DC0232D2E7FA22E891458F434FEFF
:101900000BC032FC09C0832D8E7EA82E05C0B82CDA
:10191000A32C03C0B82C01C0B92CA4FE0FC0FE013B
:10192000E80DF11D8081803321F49A2D997EA92E36
:1019300009C0A2FE06C0B394B39404C08A2D867871
:1019400009F0B394A3FC11C0A0FE06C0B21488F441
:10195000280C922C9B180EC0B21460F4B60180E2E1
:1019600090E00E94190DB394F7CFB21418F42B181D
:1019700002C0982C212CA4FE10C0B60180E390E098
:101980000E94190DA2FE17C0A1FC03C088E790E0D9
:1019900002C088E590E0B6010CC08A2D867859F027
:1019A000A1FE02C08BE201C080E2A7FC8DE2B6017D
:1019B00090E00E94190D891438F4B60180E390E09C
:1019C0000E94190D9A94F7CF8A94F301E80DF11D46
:1019D0008081B60190E00E94190D8110F5CF222080
:1019E00009F442CEB60180E290E00E94190D2A94DB
:1019F000F6CFF6018681978102C08FEF9FEF2B967D
:101A0000E2E10C94E20DFC01059061507040011080
:101A1000D8F7809590958E0F9F1F0895FC01615017
:101A2000704001900110D8F7809590958E0F9F1F00
:101A300008950F931F93CF93DF93FB01238121FD23
:101A400003C08FEF9FEF2CC022FF16C04681578145
:101A5000248135814217530744F4A081B1819D014F
:101A60002F5F3F4F318320838C93268137812F5FF7
:101A70003F4F3783268314C08B01EC01FB010084A8
:101A8000F185E02D0995892BE1F6D80116968D9107
:101A90009C911797019617969C938E931697CE015B
:101AA000DF91CF911F910F910895FA01AA27283055
:101AB00051F1203181F1E8946F936E7F6E5F7F4F1B
:101AC0008F4F9F4FAF4FB1E03ED0B4E03CD0670F97
:101AD000781F891F9A1FA11D680F791F8A1F911DEA
:101AE000A11D6A0F711D811D911DA11D20D009F43A
:101AF00068943F912AE0269F11243019305D31937C
:101B0000DEF6CF010895462F4770405D4193B3E064
:101B10000FD0C9F7F6CF462F4F70405D4A3318F00B
:101B2000495D31FD4052419302D0A9F7EACFB4E0BC
:101B3000A6959795879577956795BA95C9F7009774
:101B40006105710508959B01AC010A2E0694579515
:101B5000479537952795BA95C9F7620F731F841F6C
:101B6000951FA01D08950E94FD0DA59F900DB49F87
:101B7000900DA49F800D911D11240895B7FF0C9422
:101B8000B30D0E94B30D821B930B08952F923F92C9
:101B90004F925F926F927F928F929F92AF92BF927D
:101BA000CF92DF92EF92FF920F931F93CF93DF9329
:101BB000CDB7DEB7CA1BDB0B0FB6F894DEBF0FBE86
:101BC000CDBF09942A88398848885F846E847D84D3
:101BD0008C849B84AA84B984C884DF80EE80FD80D5
:101BE0000C811B81AA81B981CE0FD11D0FB6F8944B
:101BF000DEBF0FBECDBFED010895A29FB001B39F20
:101C0000C001A39F700D811D1124911DB29F700D05
:0C1C1000811D1124911D0895F894FFCF50
:101C1C00010000003F065B4F666D7D077F6F0F0074
:101C2C00000003000000007B06B3060000343339CB
:101C3C003230363030000D596F75722053636F722D
:0A1C4C00652069733A253130640009
:00000001FF
